{"abi":[{"type":"function","name":"commentIdIncreament","inputs":[],"outputs":[{"name":"","type":"uint256","internalType":"uint256"}],"stateMutability":"view"},{"type":"function","name":"comments","inputs":[{"name":"","type":"uint256","internalType":"uint256"}],"outputs":[{"name":"owner","type":"address","internalType":"address"},{"name":"id","type":"uint256","internalType":"uint256"},{"name":"title","type":"string","internalType":"string"},{"name":"description","type":"string","internalType":"string"},{"name":"spoil","type":"bool","internalType":"bool"},{"name":"likes","type":"uint256","internalType":"uint256"},{"name":"timestamp","type":"uint256","internalType":"uint256"}],"stateMutability":"view"},{"type":"function","name":"compareStringsbyBytes","inputs":[{"name":"s1","type":"string","internalType":"string"},{"name":"s2","type":"string","internalType":"string"}],"outputs":[{"name":"","type":"bool","internalType":"bool"}],"stateMutability":"pure"},{"type":"function","name":"createComment","inputs":[{"name":"_postId","type":"uint256","internalType":"uint256"},{"name":"_title","type":"string","internalType":"string"},{"name":"_description","type":"string","internalType":"string"},{"name":"_spoil","type":"bool","internalType":"bool"}],"outputs":[{"name":"","type":"uint256","internalType":"uint256"}],"stateMutability":"nonpayable"},{"type":"function","name":"createPoll","inputs":[{"name":"_postId","type":"uint256","internalType":"uint256"},{"name":"_question","type":"string","internalType":"string"},{"name":"_option1","type":"string","internalType":"string"},{"name":"_option2","type":"string","internalType":"string"}],"outputs":[{"name":"","type":"uint256","internalType":"uint256"}],"stateMutability":"nonpayable"},{"type":"function","name":"createPost","inputs":[{"name":"_title","type":"string","internalType":"string"},{"name":"_description","type":"string","internalType":"string"},{"name":"_spoil","type":"bool","internalType":"bool"}],"outputs":[{"name":"","type":"uint256","internalType":"uint256"}],"stateMutability":"nonpayable"},{"type":"function","name":"downVoteComment","inputs":[{"name":"_commentId","type":"uint256","internalType":"uint256"}],"outputs":[],"stateMutability":"nonpayable"},{"type":"function","name":"downVotePost","inputs":[{"name":"_postId","type":"uint256","internalType":"uint256"}],"outputs":[],"stateMutability":"nonpayable"},{"type":"function","name":"getComment","inputs":[{"name":"_commentId","type":"uint256","internalType":"uint256"}],"outputs":[{"name":"","type":"tuple","internalType":"struct Forum.Comment","components":[{"name":"owner","type":"address","internalType":"address"},{"name":"id","type":"uint256","internalType":"uint256"},{"name":"title","type":"string","internalType":"string"},{"name":"description","type":"string","internalType":"string"},{"name":"spoil","type":"bool","internalType":"bool"},{"name":"likes","type":"uint256","internalType":"uint256"},{"name":"timestamp","type":"uint256","internalType":"uint256"}]}],"stateMutability":"view"},{"type":"function","name":"getCommentsFromPost","inputs":[{"name":"_postId","type":"uint256","internalType":"uint256"}],"outputs":[{"name":"","type":"uint256[]","internalType":"uint256[]"}],"stateMutability":"view"},{"type":"function","name":"getPoll","inputs":[{"name":"_pollId","type":"uint256","internalType":"uint256"}],"outputs":[{"name":"","type":"tuple","internalType":"struct Forum.Poll","components":[{"name":"id","type":"uint256","internalType":"uint256"},{"name":"question","type":"string","internalType":"string"},{"name":"option1","type":"string","internalType":"string"},{"name":"option2","type":"string","internalType":"string"},{"name":"option1Counter","type":"uint256","internalType":"uint256"},{"name":"option2Counter","type":"uint256","internalType":"uint256"}]}],"stateMutability":"view"},{"type":"function","name":"getPollFromPost","inputs":[{"name":"_postId","type":"uint256","internalType":"uint256"}],"outputs":[{"name":"","type":"tuple","internalType":"struct Forum.Poll","components":[{"name":"id","type":"uint256","internalType":"uint256"},{"name":"question","type":"string","internalType":"string"},{"name":"option1","type":"string","internalType":"string"},{"name":"option2","type":"string","internalType":"string"},{"name":"option1Counter","type":"uint256","internalType":"uint256"},{"name":"option2Counter","type":"uint256","internalType":"uint256"}]}],"stateMutability":"view"},{"type":"function","name":"getPost","inputs":[{"name":"_postId","type":"uint256","internalType":"uint256"}],"outputs":[{"name":"","type":"tuple","internalType":"struct Forum.Post","components":[{"name":"owner","type":"address","internalType":"address"},{"name":"id","type":"uint256","internalType":"uint256"},{"name":"title","type":"string","internalType":"string"},{"name":"description","type":"string","internalType":"string"},{"name":"spoil","type":"bool","internalType":"bool"},{"name":"likes","type":"uint256","internalType":"uint256"},{"name":"timestamp","type":"uint256","internalType":"uint256"}]}],"stateMutability":"view"},{"type":"function","name":"getPostsFromAddress","inputs":[{"name":"_user","type":"address","internalType":"address"}],"outputs":[{"name":"","type":"uint256[]","internalType":"uint256[]"}],"stateMutability":"view"},{"type":"function","name":"pollIdIncreament","inputs":[],"outputs":[{"name":"","type":"uint256","internalType":"uint256"}],"stateMutability":"view"},{"type":"function","name":"polls","inputs":[{"name":"","type":"uint256","internalType":"uint256"}],"outputs":[{"name":"id","type":"uint256","internalType":"uint256"},{"name":"question","type":"string","internalType":"string"},{"name":"option1","type":"string","internalType":"string"},{"name":"option2","type":"string","internalType":"string"},{"name":"option1Counter","type":"uint256","internalType":"uint256"},{"name":"option2Counter","type":"uint256","internalType":"uint256"}],"stateMutability":"view"},{"type":"function","name":"postIdIncreament","inputs":[],"outputs":[{"name":"","type":"uint256","internalType":"uint256"}],"stateMutability":"view"},{"type":"function","name":"postToPoll","inputs":[{"name":"","type":"uint256","internalType":"uint256"}],"outputs":[{"name":"","type":"uint256","internalType":"uint256"}],"stateMutability":"view"},{"type":"function","name":"posts","inputs":[{"name":"","type":"uint256","internalType":"uint256"}],"outputs":[{"name":"owner","type":"address","internalType":"address"},{"name":"id","type":"uint256","internalType":"uint256"},{"name":"title","type":"string","internalType":"string"},{"name":"description","type":"string","internalType":"string"},{"name":"spoil","type":"bool","internalType":"bool"},{"name":"likes","type":"uint256","internalType":"uint256"},{"name":"timestamp","type":"uint256","internalType":"uint256"}],"stateMutability":"view"},{"type":"function","name":"upVoteComment","inputs":[{"name":"_commentId","type":"uint256","internalType":"uint256"}],"outputs":[],"stateMutability":"nonpayable"},{"type":"function","name":"upVotePollOption","inputs":[{"name":"_postId","type":"uint256","internalType":"uint256"},{"name":"option","type":"string","internalType":"string"}],"outputs":[],"stateMutability":"nonpayable"},{"type":"function","name":"upVotePost","inputs":[{"name":"_postId","type":"uint256","internalType":"uint256"}],"outputs":[],"stateMutability":"nonpayable"},{"type":"event","name":"PostSubmitted","inputs":[{"name":"userAddress","type":"address","indexed":true,"internalType":"address"},{"name":"post","type":"tuple","indexed":false,"internalType":"struct Forum.Post","components":[{"name":"owner","type":"address","internalType":"address"},{"name":"id","type":"uint256","internalType":"uint256"},{"name":"title","type":"string","internalType":"string"},{"name":"description","type":"string","internalType":"string"},{"name":"spoil","type":"bool","internalType":"bool"},{"name":"likes","type":"uint256","internalType":"uint256"},{"name":"timestamp","type":"uint256","internalType":"uint256"}]}],"anonymous":false}],"bytecode":{"object":"0x60806040526001600055600180556001600255348015601d57600080fd5b50611beb8061002d6000396000f3fe608060405234801561001057600080fd5b50600436106101425760003560e01c80636cc3f3c6116100b85780638ebb4c151161007c5780638ebb4c15146102ba578063ac2f0074146102cd578063bc8fd685146102f2578063c250bd8114610305578063c60fa0fa14610318578063e9a734ff1461032b57600080fd5b80636cc3f3c614610253578063762d376b146102735780637e9545b41461027c57806387bcfd68146102945780638e07bba2146102a757600080fd5b806321828f821161010a57806321828f82146101de57806324844ea3146101f157806328fba2321461020457806340288e1c1461021757806340731c24146102375780635dbfd5bc1461024a57600080fd5b806306cdc336146101475780630800e300146101635780630b1e7f8314610183578063138c40d1146101a95780631a8cbcaa146101be575b600080fd5b61015060005481565b6040519081526020015b60405180910390f35b610176610171366004611380565b61034e565b60405161015a9190611460565b610196610191366004611380565b610578565b60405161015a979695949392919061147a565b6101bc6101b7366004611380565b6106d3565b005b6101d16101cc366004611380565b6107a7565b60405161015a91906114d3565b6101bc6101ec366004611380565b610a22565b6101bc6101ff366004611380565b610aaf565b6101d1610212366004611380565b610af0565b61022a610225366004611380565b610b6c565b60405161015a9190611555565b610176610245366004611380565b610bf0565b61015060015481565b610150610261366004611380565b60076020526000908152604090205481565b61015060025481565b61015061028a366004611650565b6000949350505050565b6101506102a23660046116d1565b610ca7565b6101bc6102b5366004611380565b610dae565b6101966102c8366004611380565b610def565b6102e06102db366004611380565b610e21565b60405161015a9695949392919061176c565b6101bc6103003660046117c1565b610fee565b610150610313366004611807565b6111bc565b61022a61032636600461187e565b6112bc565b61033e6103393660046118a7565b611326565b604051901515815260200161015a565b6103996040518060e0016040528060006001600160a01b0316815260200160008152602001606081526020016060815260200160001515815260200160008152602001600081525090565b6002548211156103f05760405162461bcd60e51b815260206004820152601760248201527f436f6d6d656e7420646f6573206e6f742065786973742100000000000000000060448201526064015b60405180910390fd5b600082815260066020908152604091829020825160e08101845281546001600160a01b03168152600182015492810192909252600281018054929391929184019161043a906118f8565b80601f0160208091040260200160405190810160405280929190818152602001828054610466906118f8565b80156104b35780601f10610488576101008083540402835291602001916104b3565b820191906000526020600020905b81548152906001019060200180831161049657829003601f168201915b505050505081526020016003820180546104cc906118f8565b80601f01602080910402602001604051908101604052809291908181526020018280546104f8906118f8565b80156105455780601f1061051a57610100808354040283529160200191610545565b820191906000526020600020905b81548152906001019060200180831161052857829003601f168201915b5050509183525050600482015460ff16151560208201526005820154604082015260069091015460609091015292915050565b6004602052600090815260409020805460018201546002830180546001600160a01b039093169391926105aa906118f8565b80601f01602080910402602001604051908101604052809291908181526020018280546105d6906118f8565b80156106235780601f106105f857610100808354040283529160200191610623565b820191906000526020600020905b81548152906001019060200180831161060657829003601f168201915b505050505090806003018054610638906118f8565b80601f0160208091040260200160405190810160405280929190818152602001828054610664906118f8565b80156106b15780601f10610686576101008083540402835291602001916106b1565b820191906000526020600020905b81548152906001019060200180831161069457829003601f168201915b5050505060048301546005840154600690940154929360ff9091169290915087565b6002548111156106f55760405162461bcd60e51b81526004016103e790611932565b60008181526006602052604090206005810154610713906001611976565b60058201556000828152600660205260409020815481546001600160a01b0319166001600160a01b03909116178155600180830154908201558190600280820190610760908401826119d8565b50600381810190610773908401826119d8565b50600482810154908201805460ff191660ff9092161515919091179055600580830154908201556006918201549101555050565b6107e06040518060c001604052806000815260200160608152602001606081526020016060815260200160008152602001600081525090565b6001548211156108295760405162461bcd60e51b8152602060048201526014602482015273506f6c6c20646f6573206e6f742065786973742160601b60448201526064016103e7565b600560008381526020019081526020016000206040518060c001604052908160008201548152602001600182018054610861906118f8565b80601f016020809104026020016040519081016040528092919081815260200182805461088d906118f8565b80156108da5780601f106108af576101008083540402835291602001916108da565b820191906000526020600020905b8154815290600101906020018083116108bd57829003601f168201915b505050505081526020016002820180546108f3906118f8565b80601f016020809104026020016040519081016040528092919081815260200182805461091f906118f8565b801561096c5780601f106109415761010080835404028352916020019161096c565b820191906000526020600020905b81548152906001019060200180831161094f57829003601f168201915b50505050508152602001600382018054610985906118f8565b80601f01602080910402602001604051908101604052809291908181526020018280546109b1906118f8565b80156109fe5780601f106109d3576101008083540402835291602001916109fe565b820191906000526020600020905b8154815290600101906020018083116109e157829003601f168201915b50505050508152602001600482015481526020016005820154815250509050919050565b600054811115610a445760405162461bcd60e51b81526004016103e790611932565b60008181526004602052604090206005810154610a62906001611976565b60058201556000828152600460205260409020815481546001600160a01b0319166001600160a01b03909116178155600180830154908201558190600280820190610760908401826119d8565b600054811115610ad15760405162461bcd60e51b81526004016103e790611932565b60008181526004602052604090206005810154610a6290600190611ab7565b610b296040518060c001604052806000815260200160608152602001606081526020016060815260200160008152602001600081525090565b600054821115610b4b5760405162461bcd60e51b81526004016103e790611932565b60008281526007602052604081205490610b64826107a7565b949350505050565b6060600054821115610b905760405162461bcd60e51b81526004016103e790611932565b60008281526008602090815260409182902080548351818402810184019094528084529091830182828015610be457602002820191906000526020600020905b815481526020019060010190808311610bd0575b50505050509050919050565b610c3b6040518060e0016040528060006001600160a01b0316815260200160008152602001606081526020016060815260200160001515815260200160008152602001600081525090565b600054821115610c5d5760405162461bcd60e51b81526004016103e790611932565b600082815260046020908152604091829020825160e08101845281546001600160a01b03168152600182015492810192909252600281018054929391929184019161043a906118f8565b60008054851115610cca5760405162461bcd60e51b81526004016103e790611932565b6001805460009182610cdb83611aca565b909155506040805160c08101825282815260208082018981528284018990526060830188905260006080840181905260a084018190528581526005909252929020815181559151929350916001820190610d359082611ae3565b5060408201516002820190610d4a9082611ae3565b5060608201516003820190610d5f9082611ae3565b506080820151600482015560a0909101516005909101556000868152600760209081526040808320849055338352600a8252822080546001810182559083529120018190559050949350505050565b600254811115610dd05760405162461bcd60e51b81526004016103e790611932565b6000818152600660205260409020600581015461071390600190611ab7565b6006602052600090815260409020805460018201546002830180546001600160a01b039093169391926105aa906118f8565b60056020526000908152604090208054600182018054919291610e43906118f8565b80601f0160208091040260200160405190810160405280929190818152602001828054610e6f906118f8565b8015610ebc5780601f10610e9157610100808354040283529160200191610ebc565b820191906000526020600020905b815481529060010190602001808311610e9f57829003601f168201915b505050505090806002018054610ed1906118f8565b80601f0160208091040260200160405190810160405280929190818152602001828054610efd906118f8565b8015610f4a5780601f10610f1f57610100808354040283529160200191610f4a565b820191906000526020600020905b815481529060010190602001808311610f2d57829003601f168201915b505050505090806003018054610f5f906118f8565b80601f0160208091040260200160405190810160405280929190818152602001828054610f8b906118f8565b8015610fd85780601f10610fad57610100808354040283529160200191610fd8565b820191906000526020600020905b815481529060010190602001808311610fbb57829003601f168201915b5050505050908060040154908060050154905086565b6000548211156110105760405162461bcd60e51b81526004016103e790611932565b6000828152600760209081526040808320548352600590915290206002810180546110c3919061103f906118f8565b80601f016020809104026020016040519081016040528092919081815260200182805461106b906118f8565b80156110b85780601f1061108d576101008083540402835291602001916110b8565b820191906000526020600020905b81548152906001019060200180831161109b57829003601f168201915b505050505083611326565b156110e4576004810180549060006110da83611aca565b919050555061114a565b6110f681600301805461103f906118f8565b1561110d576005810180549060006110da83611aca565b60405162461bcd60e51b81526020600482015260126024820152712737ba1030903b30b634b21037b83a34b7b760711b60448201526064016103e7565b60008381526007602090815260408083205483526005909152902081548155819060018082019061117d908401826119d8565b50600281810190611190908401826119d8565b506003818101906111a3908401826119d8565b5060048281015490820155600591820154910155505050565b60008054819081806111cd83611aca565b909155506040805160e08101825233815260208082018481528284018a8152606084018a90528815156080850152600060a085018190524260c0860152868152600490935293909120825181546001600160a01b0319166001600160a01b0390911617815590516001820155915192935091600282019061124e9082611ae3565b50606082015160038201906112639082611ae3565b50608082015160048201805460ff191691151591909117905560a0820151600582015560c09091015160069091015533600090815260036020908152604082208054600181018255908352912001819055949350505050565b6001600160a01b038116600090815260036020908152604091829020805483518184028101840190945280845260609392830182828015610be45760200282019190600052602060002090815481526020019060010190808311610bd05750505050509050919050565b6000816040516020016113399190611b99565b60405160208183030381529060405280519060200120836040516020016113609190611b99565b604051602081830303815290604052805190602001201490505b92915050565b60006020828403121561139257600080fd5b5035919050565b60005b838110156113b457818101518382015260200161139c565b50506000910152565b600081518084526113d5816020860160208601611399565b601f01601f19169290920160200192915050565b60018060a01b038151168252602081015160208301526000604082015160e0604085015261141a60e08501826113bd565b90506060830151848203606086015261143382826113bd565b91505060808301511515608085015260a083015160a085015260c083015160c08501528091505092915050565b60208152600061147360208301846113e9565b9392505050565b60018060a01b038816815286602082015260e0604082015260006114a160e08301886113bd565b82810360608401526114b381886113bd565b9515156080840152505060a081019290925260c090910152949350505050565b60208152815160208201526000602083015160c060408401526114f960e08401826113bd565b90506040840151601f1984830301606085015261151682826113bd565b9150506060840151601f1984830301608085015261153482826113bd565b915050608084015160a084015260a084015160c08401528091505092915050565b602080825282518282018190526000918401906040840190835b8181101561158d57835183526020938401939092019160010161156f565b509095945050505050565b634e487b7160e01b600052604160045260246000fd5b600082601f8301126115bf57600080fd5b81356001600160401b038111156115d8576115d8611598565b604051601f8201601f19908116603f011681016001600160401b038111828210171561160657611606611598565b60405281815283820160200185101561161e57600080fd5b816020850160208301376000918101602001919091529392505050565b8035801515811461164b57600080fd5b919050565b6000806000806080858703121561166657600080fd5b8435935060208501356001600160401b0381111561168357600080fd5b61168f878288016115ae565b93505060408501356001600160401b038111156116ab57600080fd5b6116b7878288016115ae565b9250506116c66060860161163b565b905092959194509250565b600080600080608085870312156116e757600080fd5b8435935060208501356001600160401b0381111561170457600080fd5b611710878288016115ae565b93505060408501356001600160401b0381111561172c57600080fd5b611738878288016115ae565b92505060608501356001600160401b0381111561175457600080fd5b611760878288016115ae565b91505092959194509250565b86815260c06020820152600061178560c08301886113bd565b828103604084015261179781886113bd565b905082810360608401526117ab81876113bd565b6080840195909552505060a00152949350505050565b600080604083850312156117d457600080fd5b8235915060208301356001600160401b038111156117f157600080fd5b6117fd858286016115ae565b9150509250929050565b60008060006060848603121561181c57600080fd5b83356001600160401b0381111561183257600080fd5b61183e868287016115ae565b93505060208401356001600160401b0381111561185a57600080fd5b611866868287016115ae565b9250506118756040850161163b565b90509250925092565b60006020828403121561189057600080fd5b81356001600160a01b038116811461147357600080fd5b600080604083850312156118ba57600080fd5b82356001600160401b038111156118d057600080fd5b6118dc858286016115ae565b92505060208301356001600160401b038111156117f157600080fd5b600181811c9082168061190c57607f821691505b60208210810361192c57634e487b7160e01b600052602260045260246000fd5b50919050565b602080825260149082015273506f737420646f6573206e6f742065786973742160601b604082015260600190565b634e487b7160e01b600052601160045260246000fd5b8082018082111561137a5761137a611960565b601f8211156119d357806000526020600020601f840160051c810160208510156119b05750805b601f840160051c820191505b818110156119d057600081556001016119bc565b50505b505050565b8181036119e3575050565b6119ed82546118f8565b6001600160401b03811115611a0457611a04611598565b611a1881611a1284546118f8565b84611989565b6000601f821160018114611a4f5760008315611a345750848201545b600184901b600019600386901b1c198216175b8555506119d0565b600085815260209020601f19841690600086815260209020845b83811015611a895782860154825560019586019590910190602001611a69565b5085831015611aa75781850154600019600388901b60f8161c191681555b5050505050600190811b01905550565b8181038181111561137a5761137a611960565b600060018201611adc57611adc611960565b5060010190565b81516001600160401b03811115611afc57611afc611598565b611b0a81611a1284546118f8565b6020601f821160018114611b3c5760008315611a34575081850151600184901b600019600386901b1c19821617611a47565b600084815260208120601f198516915b82811015611b6c5787850151825560209485019460019092019101611b4c565b5084821015611b8a5786840151600019600387901b60f8161c191681555b50505050600190811b01905550565b60008251611bab818460208701611399565b919091019291505056fea2646970667358221220b0ea38ef6f60be4e4527a668ed1e80a6ca0d19d5fcadd9c6c56b7f3ac9ba08ab64736f6c634300081b0033","linkReferences":{}},"methodIdentifiers":{"commentIdIncreament()":"762d376b","comments(uint256)":"8ebb4c15","compareStringsbyBytes(string,string)":"e9a734ff","createComment(uint256,string,string,bool)":"7e9545b4","createPoll(uint256,string,string,string)":"87bcfd68","createPost(string,string,bool)":"c250bd81","downVoteComment(uint256)":"8e07bba2","downVotePost(uint256)":"24844ea3","getComment(uint256)":"0800e300","getCommentsFromPost(uint256)":"40288e1c","getPoll(uint256)":"1a8cbcaa","getPollFromPost(uint256)":"28fba232","getPost(uint256)":"40731c24","getPostsFromAddress(address)":"c60fa0fa","pollIdIncreament()":"5dbfd5bc","polls(uint256)":"ac2f0074","postIdIncreament()":"06cdc336","postToPoll(uint256)":"6cc3f3c6","posts(uint256)":"0b1e7f83","upVoteComment(uint256)":"138c40d1","upVotePollOption(uint256,string)":"bc8fd685","upVotePost(uint256)":"21828f82"},"id":25}